:020000040800F2
:10000000880C00206D030008691300086B130008BA
:100010006F13000873130008771300080000000036
:100020000000000000000000000000007B1300083A
:100030007D130008000000007F1300089B130008D8
:100040008703000887030008870300088703000868
:100050008703000887030008870300088703000858
:1000600087030008710E0008870300088703000853
:100070008703000887030008870300088703000838
:100080008703000887030008870300088703000828
:10009000870300088703000887030008890E00080B
:1000A0008703000887030008870300088703000808
:1000B0008703000887030008E90300088703000896
:1000C00087030008870300088703000887030008E8
:1000D00087030008E70A0008870300088703000871
:1000E00087030008870300088703000800F002F870
:1000F00000F03FF80AA090E8000C82448344AAF183
:100100000107DA4501D100F034F8AFF2090EBAE880
:100110000F0013F0010F18BFFB1A43F0010318473B
:100120004C4900006C490000103A24BF78C878C1DF
:10013000FAD8520724BF30C830C144BF04680C60ED
:10014000704700000023002400250026103A28BF35
:1001500078C1FBD8520728BF30C148BF0B60704739
:10016000642903F05383002070471FB51FBD10B5ED
:1001700010BD03F089FC1146FFF7F7FF01F060F8AE
:1001800003F0A7FC03B4FFF7F2FF03BC00F0D6FBBB
:100190000CB50020019000906B48006840F480305E
:1001A0006949086000BF6848006800F400300090AA
:1001B0000198401C0190009818B90198B0F5A06F03
:1001C000F1D16148006800F4003010B101200090C6
:1001D00001E0002000900098012841D15B480068B0
:1001E00040F01000594908600846006820F00300FC
:1001F00008600846006840F0010008605248406806
:100200005149486008464068486008464068486070
:100210000846406820F47C1048600846406840F476
:10022000F81048600846006840F08070086000BF21
:100230004548006800F000700028F9D04248406846
:1002400020F00300404948600846406840F0020042
:10025000486000BF3C48406800F00C000828F9D115
:100260000CBD10B5FFF794FF10BD10B536480068FF
:1002700040F00100344908600846406834490840AD
:100280003149486008460068324908402E490860F4
:100290000846006820F4802008600846406820F482
:1002A000FE0048604FF41F008860FFF7DAFF4FF050
:1002B00000602949086010BD10B50021002000220F
:1002C000214B5B6803F00C0121B1042906D00829F9
:1002D00028D107E0214B224C236027E01F4B204C04
:1002E000236023E0184B5B6803F47010164B5B68C7
:1002F00003F48032022303EB904022B9194B4343AD
:10030000174C23600DE0104B5B6803F4003323B1FE
:10031000144B4343124C236003E0104B4343104CF7
:10032000236003E00D4B0E4C236000BF00BF064B63
:100330005B68C3F303130C4CE15C094B1B68CB40B7
:10034000074C236010BD0000001002400020024056
:100350000000FFF8FFFFF6FE08ED00E000127A0053
:100360000000002000093D000400002009488047EB
:1003700009480047FEE7FEE7FEE7FEE7FEE7FEE787
:10038000FEE7FEE7FEE7FEE704480549054A064B9F
:10039000704700006B020008ED000008880600208E
:1003A000880C0020880800208808002070B50446CA
:1003B00000F0F9FF054600BF00F0F5FF401B04EB1D
:1003C0004401C1EBC411B0EBC10FF5D370BD70B5E2
:1003D000044600F0E8FF054600BF00F0E4FF401BC4
:1003E000A042FAD370BD000010B501213C4802F0D4
:1003F0002EFC002837D03B480088401C80B2394989
:100400000880642804D10020088001203649088033
:1004100036480088401C80B234490880142804D132
:100420000020088001203249088032480088401CA2
:1004300080B2304908800C2804D1002008800120B7
:100440002D4908802D480088401C80B22B49088027
:100450000A2804D1002008800120294908800121B0
:100460001F4802F005FC10BD3EB505460C460121B3
:10047000042001F09CFC1A4801F0F0FCA0B2ADF899
:100480000400681E80B2ADF800000020ADF8060040
:10049000ADF802006946124801F0B4FD0121104890
:1004A00002F0D2FB012211460D4802F022F901218F
:1004B0000B4802F003F93EBD08B54FF4A06001F00F
:1004C000DFF81E208DF8000001208DF801008DF866
:1004D00002008DF80300684601F0D7F808BD00005F
:1004E00000080040140000201C000020160000201E
:1004F0001E00002018000020200000201A0000200C
:100500002200002070B505460C461021784801F005
:1005100034FA284600F0D7FD0646204600F0D3FD09
:100520001021734801F027FA304670BD70B50446BB
:1005300010216F4801F021FA204600F0C4FD002090
:1005400000F0C1FD05461021694801F014FA284663
:1005500070BD2DE9F04107460D461646102164484E
:1005600001F00BFA384600F0AEFD8046002404E0AE
:10057000285D00F0A8FD601CC4B2B442F8DB102175
:100580005B4801F0F8F94046BDE8F0812DE9F04103
:1005900007460D4616461021554801F0EEF938463B
:1005A00000F091FD8046002405E0002000F08BFD66
:1005B0002855601CC4B2B442F7DB10214C4801F04E
:1005C000DAF94046BDE8F08170B504460D464FF4B7
:1005D0000041474801F0D1F92A462146A020FFF703
:1005E000B8FF4FF40041424801F0C5F970BD1FB596
:1005F00040A103C9CDE902010024052202A930204F
:10060000FFF7A7FF052269461020FFF7BFFF00BFD5
:1006100008E01DF80400C22802D0002004B010BD7C
:10062000601CC4B2052CF4DB0120F7E710B500F024
:10063000EBFCFFF7DCFF10BD10B54FF400412C4878
:1006400001F09BF9FF21E120FFF75CFF05222B4918
:100650003020FFF77EFF052228492A20FFF779FF87
:1006600001212120FFF74EFF01212220FFF74AFF41
:100670001A212420FFF746FF28212520FFF742FFFB
:100680000F212620FFF73EFF0E212020FFF73AFF23
:100690004FF40041164801F06EF910BD70B50546E3
:1006A0004FF40041124801F068F920222946A020A9
:1006B000FFF74FFF4FF400410D4801F05CF90720B0
:1006C000FFF734FF044621462720FFF71BFF04F005
:1006D000100028B1FF21E120FFF714FF102070BDAA
:1006E00004F0200008B12020F9E7FF20F7E7000020
:1006F00000080140C2C2C2C2C200000024000020A3
:1007000089488A4948608A48486070478748006934
:1007100040F080008549086170478448C16801F055
:10072000010008B10120704701F0040008B1022067
:10073000F9E701F0100008B10320F4E70020F2E728
:1007400070B5044600BFFFF7E8FF0546012D00D055
:1007500006E00120FFF73BFE601E84B2002CF2D1C0
:1007600000BF04B9FF25284670BD70B505460024BA
:1007700045F6FF70FFF7E4FF0446C4B96B48006913
:1007800040F002006949086108464561006940F08F
:100790004000086145F6FF70FFF7D2FF0446012CC8
:1007A00005D06248006920F00200604908612046D7
:1007B00070BD70B505460E46FF20FFF7C1FF044629
:1007C00094B95A48006940F00100584908612E80E8
:1007D000FF20FFF7B5FF0446012C05D05348006900
:1007E00020F0010051490861204670BD014608888B
:1007F00070472DE9F04105460E461746002407E0F4
:1008000036F814102846FFF7D4FFAD1C601C84B2E4
:10081000BC42F5DBBDE8F08130B503460C46154619
:10082000002207E01846FFF7E1FF24F812009B1CA6
:10083000501C82B2AA42F5DB30BD2DE9F05F804644
:100840008A461746B8F1006F02D33A48804501D373
:10085000BDE8F09FFFF754FFA8F1006B4FEA9B251E
:10086000CBF34809C9F50074A74200DC3C464DE0D3
:100870004FF0006101EB85208A142F49FFF7CCFF70
:1008800000260BE009EB06002B4931F810004FF66B
:10089000FF71884200D003E0701C86B2A642F1DBF3
:1008A00000BFA6421BDA4FF0006101EB8520FFF785
:1008B0005CFF002608E03AF8160006EB09011E4A24
:1008C00022F81100701C86B2A642F4DB4FF00061E2
:1008D00001EB85208A141849FFF78BFF04E02246BC
:1008E00051464046FFF785FFA74200D10FE06D1C3F
:1008F0004FF000090AEB440AA044381B87B2B7F551
:10090000007F02DD4FF4007400E03C46B0E700BF1A
:10091000FFF7FCFE00BF9BE713B50446012201A9C7
:100920002046FFF78AFF1CBD2301674500200240D7
:10093000AB89EFCD000001080001002000BF704727
:1009400000BFA14A128802F04002002AF9D0C2B2C8
:100950009D4B1B1D1A80704708B525208DF800009F
:1009600002208DF8010000208DF8020001208DF892
:100970000300684600F089FE08BD2DE9F05F0546DA
:100980000E46300103F012FF8146904905FB01F04D
:1009900003F00CFF8246494603F0F2FD0746384655
:1009A00003F0CCFE84B2204603F000FF83463946B4
:1009B00003F0DCFF82464FF0834103F00BFF8146DA
:1009C00003F0BCFE80464FF6FF7000EA041404EB0F
:1009D000080084B27E48806940F004007C49886148
:1009E0000846806940F4804088617A48006820F4B5
:1009F0007F60784908600846006840F40B60086032
:100A00007348C06840F480407149C8600846C068B7
:100A100020F48040C8606C4808300480001D0088C5
:100A200042F20C01084368490C31088008460088EE
:100A300040F4807008800846008840F0200008805C
:100A4000FFF78AFF00206449088048807F20888063
:100A50006248886000206249088048807F20888042
:100A600060488860BDE8F09F028883881A408368E8
:100A700099540288521C0280704710B504462146E2
:100A80005548FFF7F1FF012240F227714E4802F06E
:100A9000CEF910BD01464A888B881A408B68985C55
:100AA0004A88521C4A807047014608884A88801A42
:100AB0008A881040704701884180704770B50446AD
:100AC0000D46002606E021784348FFF7CDFF641C61
:100AD000701CC6B2AE42F6DB012240F227713A48E2
:100AE00002F0A5F970BD10B540F22551364802F06C
:100AF00083FA70B140F22551334802F0A7FA324828
:100B000002F0FAF938490870084601783448FFF7CE
:100B1000ABFF10BD10B535480078002827D0002065
:100B200032490870112032490870FF2048708870DF
:100B3000C8700871FFF780FD00F035FC81B22D48C8
:100B4000818100F030FCC0F30F212A48C181007B75
:100B50002749087027488089001248702548807B03
:100B600088702448C0890012C87000F07BFD40F2F4
:100B7000DC502049088101461E4841811E4800780A
:100B8000401C1D49087008460078FF281AD11B48F0
:100B9000007830B14FF480510E48001F00F0EBFE9A
:100BA00005E04FF480510B48001F00F0E6FE1348AB
:100BB000007808B9012000E00020104908700020EA
:100BC0000D49087010BD00000038014040420F0080
:100BD0000010024004080140000500209805002094
:100BE0000C050020180500203800002030000020EF
:100BF000240000206E0000203A0000203900002070
:100C00008F48806940F004008D49886108468069FA
:100C100040F0080088618B4800686FF30B00894939
:100C200008608948006820F00F0087490860844800
:100C3000806940F40070824988610846C06840F4C9
:100C40000070C8600846C06820F40070C86008469C
:100C5000406820F4404048600846406840F4004046
:100C600048607A4800687A49084078490860084630
:100C7000006808600846006820F480700860081D5D
:100C8000006820F00200091D08600846006820F492
:100C9000602008600846006840F46020086008464C
:100CA000006840F4801008600846006820F4006086
:100CB00008600846006840F4000008606348283077
:100CC000006820F470006149283108600846006817
:100CD000002008605D480C30006820F038005B4957
:100CE0000C3108600846006840F038000860081FB2
:100CF000006820F4E010091F08600846006840F40E
:100D0000E0100860081F006840F00100091F08603B
:100D10000846006840F00800086000BF4B48001D0E
:100D2000006800F008000028F8D14848001D00685D
:100D300040F004004549091D086000BF4348001DFC
:100D4000006800F004000028F8D1704701463F48D1
:100D50003030006820F01F003C4A303210601046EE
:100D60000068084310603948001D006840F48000A6
:100D7000364A121D106000BF3448001F006800F0A2
:100D800002000028F8D031484830006880B270472F
:100D900070B506460B460024002505E03046FFF7F7
:100DA000D5FF0444681CC5B29D42F7DBB4FBF3F0E9
:100DB00080B270BD2DE9FE4F0024A14608E010204E
:100DC000FFF7C4FF204484B209F1010000F0FF09DD
:100DD000B9F1140FF3DB142094FBF0F084B2204639
:100DE00003F0E4FC824603F03DFB07464FF0663219
:100DF000184B03F00DF9054602F078FE02900298B8
:100E000003F030FB0546144A144B03F035FA07464D
:100E1000134A144B02F050FF0022134BCDE900019E
:100E200002F096FE824602F061FE02900F4902989F
:100E300003F0D0FC0290029803F064FCBDE8FE8F42
:100E40000010024000080140000C01400424014051
:100E5000FFFFF00066664A3FE17A14AE47E1F63FD5
:100E600022FDF675E09C713F0000394000002041F2
:100E700010B5082002F0FEFA28B101205A49087086
:100E8000082002F008FB10BD10B54FF4807002F08E
:100E9000F1FA28B1012055490870000202F0FBFA6E
:100EA00010BD10B50221524800F04BFD18B90120C9
:100EB000504908703EE04F48007840B300204D494B
:100EC00008704D484089B0F5C86F0BDD4A4800896D
:100ED000B0F5C86F06DD4848C08840F010004649AC
:100EE000C88027E04448807900F0100080B10120DC
:100EF000424908704048C08820F010003E49C88030
:100F0000FFF79AFB4FF480513D4800F036FD11E0A9
:100F10003948807900F0040030B13748C08820F0AB
:100F200004003549C88005E03348C08840F004001B
:100F30003149C8803048807900F0100080B100202D
:100F400029490870294908702B48C08820F0010001
:100F50002949C8800846C08820F00400C88010BD18
:100F60002148007810B92148007860B12548007800
:100F7000401C2449087008460078032800DAEEE790
:100F800000202049087018480078F8B10020164960
:100F900008701948807900F0010058B11648C088DF
:100FA00020F001001449C8800846C08820F00400E1
:100FB000C8800BE01048C08940F27E41884205DAC3
:100FC0000D48C08840F001000B49C88007480078F0
:100FD00040B10020054908700748C08840F008006B
:100FE0000549C88000BFBAE73B0000203C00002054
:100FF000000C01403D0000206E0000203000002069
:10100000000801403E00002000B587B00121042007
:1010100000F0C0FE0121082000F0BCFE0121080301
:1010200000F0B8FEE020ADF8040001208DF80600C5
:1010300018208DF8070001A92F4800F0EFFB4FF4AE
:101040000040ADF8040001208DF8060010208DF856
:10105000070001A9284800F0E1FB1020ADF80400CA
:1010600001208DF8060010208DF8070001A9224804
:1010700000F0D4FB1021204800F07DFC0020ADF8EA
:1010800008004FF48270ADF80A000020ADF80C00A3
:10109000ADF80E00ADF810004FF40070ADF812007E
:1010A0001020ADF814000020ADF816000720ADF8B0
:1010B000180002A9114802F009F801210F4802F0B6
:1010C000AAF807B000BD10B5044600BF02210B48C6
:1010D00002F025F90028F9D02146084802F0CCF8A2
:1010E00000BF0121054802F01AF90028F9D0034891
:1010F00002F0C4F8C0B210BD000801400030014049
:1011000010B50121484800F05AFCF02047490880FA
:101110001020C87003208870454800F07FFB4FF412
:101120008050424908801020C870032088704148D0
:1011300000F074FB4FF480513E4800F01EFC10217B
:101140003B4800F01AFC2021394800F016FC4021F1
:10115000374800F012FC8021354800F00EFC10BD2D
:1011600010B50920344908700520487000208870A7
:101170000120C870084600F088FA17202E49087030
:1011800006204870002088700120C870084600F0D2
:101190007CFA0220254908804820C8700320887006
:1011A000234800F03BFB0820204908804820C870F5
:1011B000032088701E4800F031FB4FF480701B49FB
:1011C00008804820C870032088701A4800F026FB69
:1011D0000321012000F038FC082018490860002095
:1011E00008710C20487101208871084602F0DCF873
:1011F0000821002000F028FC4FF480700F4908609F
:10120000002008710C20487101208871084602F006
:10121000CBF810BD10B501210D2000F0BBFDFFF78C
:101220009FFFFFF76DFF10BD00043000400000205D
:10123000000C01400008014044000020480000204C
:1012400008B5092000F013F900F09AF83848006852
:101250004FF47A72B0FBF2F1B1F1807F00D31DE060
:1012600021F07F40401E4FF0E022506150170F22C6
:10127000002807DA13071D0E2E4B00F00F04241F61
:101280001D5503E013071C0E2B4B1C5400BF002000
:101290004FF0E02290610720106100BF4FF4E13170
:1012A00026480078FFF769FB00F0B4F8FFF728FA4A
:1012B00000F0C5F9FFF7AEFFFFF7A2FCFFF7B6F9A4
:1012C000FFF7BAF94FF47A711C480078FFF7CCF8B1
:1012D0002DE01B48008801280ED100201849088005
:1012E000FFF7DFFD1748C0780090164883784278F2
:1012F000017815A002F04AFA17480088012804D1A5
:1013000002F00FFA0020144908801448008810B138
:101310000020124908801248008840B111488079A5
:1013200000F0100008B1FFF7F5FB02F0D9F9D0E7A3
:101330000000002018ED00E000E400E0580000206C
:101340001C00002024000020256420256420256442
:101350002025640D0A0000001E000020200000204F
:10136000220000206E000020704700BFFEE700BF93
:10137000FEE700BFFEE700BFFEE77047704770471B
:1013800000B585B0684600F098FC1F490098B0FB96
:10139000F1F01E49086005B000BD1D480068401C02
:1013A0001B490860704700BF194801684FF0E020F2
:1013B0008269174800688142F6D11448006800EB42
:1013C0004003C3EBC010C2EBC000104B1B68B0FB66
:1013D000F3F001EB4103C3EBC11300EBC300704713
:1013E00030B50446FFF7DFFF054600BFFFF7DBFF20
:1013F000401B04EB4401C1EBC411B0EBC10FF5D3AA
:1014000030BD03480068704740420F005000002084
:101410005400002010B5FFF74FF8FFF79DFA10BDFC
:10142000002054490861C860142048610020886188
:10143000C8610846006840F001000860084640683E
:101440004D4908404B494860084600684B490840F0
:10145000484908600846006820F480200860084673
:10146000406820F4FE004860002088607047014614
:101470004048006840F001003E4A10601046006895
:1014800010601046006840F48020106000BF3948AA
:10149000006800F002000028F9D036484268881E33
:1014A00042EA8040334A506010464068506010461F
:1014B000006840F08070106000BF2E48006800F0A7
:1014C00000700028F9D02B48406840F00200294AFB
:1014D00050608806000E2A4A107010460078704747
:1014E00000B502460023FFF79BFF2248006840F446
:1014F00080302049086000BF1E480068400C00286A
:10150000FAD04FF480601B494860901EC2B2084672
:10151000406840EA824048600846406840F48030B5
:1015200048601848006840F03200164908601148C9
:10153000006840F080700F49086000BF0D480068E7
:10154000400E0028FAD00B48406840F002000949DC
:10155000486005E007484068C0F3870303F00303D1
:10156000022BF7D1901CC006000E054908700846F2
:10157000007800BD001002400000FFF8FFFFF6FEFB
:10158000580000200020024010B502223849394896
:10159000FFF742F936480088012800D110BD00202D
:1015A000FCE710B5022232493248FFF746F910BD78
:1015B00010B5082462002E492E48FFF72DF910BD02
:1015C00010B5082462002A492A48FFF736F910BDF1
:1015D0002748007B284908702548808900124870F8
:1015E0002348807B88702248C0890012C870084652
:1015F0000078401C214908701F48407848701E48F8
:10160000807888701C48C078C870704701201849DD
:101610000880194800781849497800EB01201449DE
:101620008881154880781449C97800EB012081B27F
:101630000F48C1817047FF200F490871704710B5EE
:10164000FFF7A2FF20B1FFF7B3FFFFF7C1FF08E0EC
:10165000FFF7F1FFFFF7DAFF012005490880FFF7E8
:10166000AFFF10BD10B5FFF7D1FFFFF7A9FF10BD09
:101670001806002000F000082400002029000020A7
:1016800031490143314A1160704770B50021002390
:101690000F22C47804B32D4C246804F4E064C4F52C
:1016A000E064210AC1F10403CA40447804FA03F15A
:1016B0008478144021430901254C0678A15504780B
:1016C00004F01F050124AC4005786D11AD0005F153
:1016D000E025C5F8004109E0047804F01F05012465
:1016E000AC401C4D0678761145F8264070BD1A4A6C
:1016F0000A400243154B1B1F1A60704739B1134A49
:10170000121D12680243114B1B1D1A6006E00F4A9E
:10171000121D126882430D4B1B1D1A60704704286E
:1017200008D14FF0E021096941F004014FF0E022B7
:10173000116107E04FF0E021096921F004014FF049
:10174000E0221161704700000000FA050CED00E096
:1017500000E400E080E100E080FFFF1F10B50446D8
:10176000CC48844208D10121042000F02DFB002147
:10177000042000F029FB46E0C748844208D101213B
:10178000082000F021FB0021082000F01DFB3AE0BA
:10179000C248844208D10121102000F015FB00212D
:1017A000102000F011FB2EE0BD48844208D1012139
:1017B000202000F009FB0021202000F005FB22E0A2
:1017C000B848844208D10121402000F0FDFA0021F0
:1017D000402000F0F9FA16E0B348844208D1012114
:1017E000802000F0F1FA0021802000F0EDFA0AE0FC
:1017F000AE48844207D10121801500F0E5FA0021AE
:10180000A01500F0E1FA10BD10B50121084600F066
:10181000DBFA0021012000F0D7FA10BD2DE9F041DC
:10182000024600250026002000230024002791F80E
:1018300003C00CF00F0591F803C00CF0100CBCF1C4
:10184000000F03D091F802C04CEA050591F800C0E2
:10185000BCF1000F31D0146800202BE04FF0010CD8
:101860000CFA00F3B1F800C00CEA03069E4220D146
:1018700083004FF00F0C0CFA03F7BC4305FA03FC8E
:101880004CEA040491F803C0BCF1280F06D14FF0D4
:10189000010C0CFA00FCC2F814C00AE091F803C075
:1018A000BCF1480F05D14FF0010C0CFA00FCC2F856
:1018B00010C0401C0828D1D31460B1F800C0BCF19E
:1018C000FF0F34DD546800202EE000F1080C4FF0CB
:1018D000010808FA0CF3B1F800C00CEA03069E42B6
:1018E00021D183004FF00F0C0CFA03F7BC4305FA2B
:1018F00003FC4CEA040491F803C0BCF1280F05D1A5
:1019000000F1080C08FA0CF8C2F8148091F803C032
:10191000BCF1480F07D100F1080C4FF0010808FA9C
:101920000CF8C2F81080401C0828CED35460BDE8E3
:10193000F0814FF6FF710180022181700421C17096
:1019400070470246002093680B400BB1012000E075
:10195000002070470146886880B270470246002028
:10196000D3680B400BB1012000E000207047014616
:10197000C86880B2704701617047416170470AB121
:10198000016100E041617047C16070474FF48032EF
:101990000A4382618161826182698269704702467D
:1019A0000020434B18684FF68073184040EA02103D
:1019B00008433F4B186070473E49C8617047F0B517
:1019C0000A46002300240021002500F00046B6F15D
:1019D000004F02D1364EF16901E0354E7168C0F317
:1019E000034583B200F44016B6F5401F08D121F03C
:1019F00070612F4E766826F070662D4F7E6012E083
:101A000000F48016B6F5801F06D1032606FA05F409
:101A1000A14341F0706106E0460D360103FA06F677
:101A2000B14341F0706122B1460D360103FA06F66A
:101A3000314300F00046B6F1004F02D11C4EF16177
:101A400001E01B4E7160F0BD30B500228B071C0F0A
:101A50000F2303FA04F2164B08338C1053F824308A
:101A60009343134C08348D1044F8253023468C10D2
:101A700053F824308C07240F00FA04F423430C4C51
:101A800008348D1044F8253030BD0A49DC31086037
:101A90007047000000080140000C014000100140A8
:101AA0000014014000180140001C014000200140CA
:101AB0000000014000002042DF48006840F00100C3
:101AC000DD49086008464068DC490840DA4948605A
:101AD00008460068DA490840D749086008460068A7
:101AE00020F4802008600846406820F4FE0048602A
:101AF0004FF41F0088607047CF49096821F4803196
:101B0000CD4A11601146096821F480211160B0F5B9
:101B1000803F03D0B0F5802F0ED106E0C64909689A
:101B200041F48031C44A116007E0C349096841F4B7
:101B3000A021C14A116000E000BF00BF704710B58E
:101B400001460022002300204A11012A02D1BA4C8A
:101B5000236806E0022A02D1B74C236A01E0B64CA2
:101B6000636A01F01F02012494401C400CB1012063
:101B700000E0002010BD38B50020009000240025B2
:101B800000BF3120FFF7DBFF05460098401C0090A6
:101B90000098B0F5A06F01D0002DF2D03120FFF7F2
:101BA000CEFF08B1012400E00024204638BD0146E4
:101BB0000020A14A106820F0F80040EAC10010603F
:101BC0007047A04908607047024600209A4B586849
:101BD00020F47C1042EA01031843974B5860704789
:101BE00098490866704701460020934A506820F0E3
:101BF00003000843506070478F48406800F00C00B5
:101C00007047014600208C4A506820F0F0000843DD
:101C10005060704701460020874A506820F4E06019
:101C200008435060704701460020834A506820F402
:101C3000605040EAC1005060704729B17E4A527A34
:101C400002437D4B5A7204E07B4A527A82437A4BBC
:101C50005A7270477B49D8310860704701460020AE
:101C6000754A506820F44040084350607047002196
:101C7000714A20321170704A82F82010012802D077
:101C800004280AD104E001216B4A2032117005E0DA
:101C90000521694A2032117000E000BF00BF704783
:101CA0006949086070476449096A0143624A1162E0
:101CB0007047654944390860704730B500210022FB
:101CC000002400235C4D6D6805F00C0121B104294E
:101CD00005D0082923D105E05C4D056022E05B4D6D
:101CE00005601FE0544D6D6805F47012524D6D682B
:101CF00005F48034022505EB92421CB9544D55433E
:101D000005600BE04C4D6D6805F400351DB1504D7C
:101D10005543056002E04D4D5543056002E04B4DD3
:101D2000056000BF00BF444D6D6805F0F001090972
:101D3000484D6B5C0568DD4045603F4D6D6805F4BE
:101D4000E061090A434D6B5C4568DD4085603A4DB2
:101D50006D6805F46051C90A3E4D6B5C4568DD4015
:101D6000C560354D6D6805F44041890B3A4D6B5C9B
:101D7000C568B5FBF3F5056130BD29B12E4A52693E
:101D800002432D4B5A6104E02B4A526982432A4B8D
:101D90005A61704729B1284A92690243264B9A61D9
:101DA00004E0254A92698243234B9A61704729B126
:101DB000214AD2690243204BDA6104E01E4AD2690B
:101DC00082431D4BDA61704729B11B4AD268024336
:101DD000194BDA6004E0184AD2688243164BDA6085
:101DE000704729B1144A12690243134B1A6104E087
:101DF000114A12698243104B1A61704712494039E7
:101E0000086070470F49C86470470B49C871704734
:101E10000948406A40F080700749486270470146AF
:101E20000020054A92680A400AB1012000E0002023
:101E30007047014988727047001002400000FFF8A7
:101E4000FFFFF6FE000042428004424200127A0088
:101E500000093D00590000206900002010B504462B
:101E6000FE48844208D10121C014FFF7ADFF0021D4
:101E7000E014FFF7A9FFC4E0B4F1804F08D10121BD
:101E80000846FFF7AEFF00210120FFF7AAFFB8E0E8
:101E9000F348844208D101210220FFF7A2FF00216C
:101EA0000220FFF79EFFACE0EE48844208D10121FA
:101EB0000420FFF796FF00210420FFF792FFA0E027
:101EC000E948844208D101210820FFF78AFF002158
:101ED0000820FFF786FF94E0E448844208D10121FE
:101EE0001020FFF77EFF00211020FFF77AFF88E027
:101EF000DF48844208D101212020FFF772FF002132
:101F00002020FFF76EFF7CE0DA48844208D10121EF
:101F10004014FFF759FF00216014FFF755FF70E0F0
:101F2000D548844209D10121C804FFF74DFF0021A3
:101F30004FF40020FFF748FF63E0D048844209D106
:101F400001210805FFF740FF00214FF48010FFF743
:101F50003BFF56E0CA48844209D101214805FFF7FA
:101F600033FF00214FF40010FFF72EFF49E0C54872
:101F7000844208D101214020FFF733FF0021402097
:101F8000FFF72FFF3DE0C048844208D101218020A7
:101F9000FFF727FF00218020FFF723FF31E0BB4838
:101FA000844208D101218015FFF71BFF0021A015F5
:101FB000FFF717FF25E0B648844209D10121080444
:101FC000FFF702FF00214FF48030FFF7FDFE18E01D
:101FD000B048844209D101214804FFF7F5FE0021F1
:101FE0004FF40030FFF7F0FE0BE0AB48844208D11D
:101FF00001218804FFF7E8FE00214FF48020FFF75D
:10200000E3FE10BD00220288944B98420ED0994BFB
:1020100098420BD0B0F1804F08D0914B984205D038
:10202000904B984202D0904B984204D14FF68F7358
:102030001A404B881A438D4B984207D08C4B9842DC
:1020400004D04FF6FF431A40CB881A4302808B8896
:1020500083850B880385814B98420BD0854B984232
:1020600008D08B4B984205D08A4B984202D08A4BBD
:10207000984201D10B7A038601238382704770B5A1
:10208000002400220023058C4FF6FE76354005849F
:10209000028C8388048B4FF68F752C40B51E2C4024
:1020A0000D882C43751E2A400D892A434D882A43EA
:1020B0006A4DA8420BD06F4DA84208D0744DA8427B
:1020C00005D0744DA84202D0734DA84213D14FF6EB
:1020D000F7752A404D892A434FF6FB752A408D88B3
:1020E0002A434FF6FF652B404FF6FF552B408D8955
:1020F0002B43CD892B4383800483CD88858602843E
:1021000070BD70B5002400220023058C4FF6EF76D9
:1021100035400584028C8388048B48F6FF752C407B
:102120004FF6FF452C400D884FF6FF7606EA052551
:102130002C434FF6DF752A400D8906EA05152A4320
:102140004D8806EA05152A43444DA84202D0494D60
:10215000A8421DD14FF67F752A404D894FF6FF7674
:1021600006EA05152A434FF6BF752A408D8806EA10
:1021700005152A434FF6FF352B404FF2FF752B40D4
:102180008D8906EA85052B43CD8906EA85052B4313
:1021900083800483CD880587028470BD70B50024D8
:1021A00000220023058C4FF6FF6635400584028C23
:1021B0008388848B4FF68F752C404FF6FC752C402E
:1021C0000D882C434FF6FF552A400D894FF6FF76B8
:1021D00006EA05252A434D8806EA05252A431F4DB0
:1021E000A84202D0234DA8421DD14FF2FF752A40CC
:1021F0004D894FF6FF7606EA05252A434FF6FF354F
:102200002A408D8806EA05252A434EF6FF752B40A5
:102210004DF6FF752B408D8906EA05152B43CD89B8
:1022200006EA05152B4383808483CD888587028445
:1022300070BD70B5002200230024058C4EF6FF7699
:1022400035400584038C8488828B48F6FF752A40CC
:102250004FF6FF452A400D8820E00000002C014089
:102260000004004000080040000C00400010004046
:102270000014004000340140004C01400050014077
:102280000054014000180040001C004000200040A5
:102290000040014000440140004801404FF6FF76F5
:1022A00006EA05252A434DF6FF752B400D8906EAFF
:1022B00005352B434D8806EA05352B43FA4DA842D8
:1022C00002D0FA4DA84208D14BF6FF752C408D89FB
:1022D0004FF6FF7606EA85152C4384808283CD88ED
:1022E000A0F84050038470BD828B4FF2FF331A4038
:1022F0008283828B4FF6FF7303EA01231A438283A2
:102300007047F0B50C461546002200210026078CC8
:102310004EF6FF7C07EA0C070784828B018C4FF690
:10232000FF7707EA043640F6FF473A404FF6FF775B
:1023300007EA05273A434FF6FF7707EA03373A43A0
:10234000D94FB8420ED0D94FB8420BD0B0F1804F20
:1023500008D0D74FB84205D0D64FB84202D0D64F9A
:10236000B84206D14DF6FF77394046F480573943DD
:1023700005E047F6FF57394044F4805739438283DC
:102380000184F0BD828B4FF6F3731A408283828BF7
:102390000A4382837047F0B50C461546002200219F
:1023A0000026078C4FF6FF6C07EA0C070784828B28
:1023B000018C4FF6FF7707EA04264FF60C773A4078
:1023C0004FF6FF7707EA03172F433A43B64FB84259
:1023D0000ED0B64FB8420BD0B0F1804F08D0B44FFA
:1023E000B84205D0B34FB84202D0B34FB84206D17D
:1023F0004FF6FF57394046F48077394305E04FF2F6
:10240000FF57394044F48077394382830184F0BD1B
:10241000028B4FF2FF331A400283028B4FF6FF7399
:1024200003EA01231A4302837047F0B50C461546B0
:10243000002200210026078C4FF6EF7C07EA0C07EC
:102440000784028B018C4FF6FF7707EA041640F6EB
:10245000FF473A404FF6FF7707EA03373A434FF614
:10246000FF7707EA05273A438F4FB8420ED08F4FC8
:10247000B8420BD0B0F1804F08D08D4FB84205D094
:102480008C4FB84202D08C4FB84206D14FF6DF775E
:10249000394046F01007394305E04FF65F77394081
:1024A00044F01007394302830184F0BD028B4FF6DC
:1024B000F3731A400283028B0A4302837047F0B51C
:1024C0000C46154600220021068C4FF6FE773E4052
:1024D0000684028B018C4FF60C7632407E1C06EA95
:1024E00003162E433243704EB0420ED06F4EB042B0
:1024F0000BD0B0F1804F08D06D4EB04205D06D4E7C
:10250000B04202D06C4EB04206D14FF6FD7631405B
:1025100044F00106314305E04FF6F576314044F0D2
:102520000106314302830184F0BD70B505460C46B7
:102530005D4885420ED05D4885420BD0B5F1804F95
:1025400008D05B48854205D05A48854202D05A4897
:10255000854200D100E000BF208850B92389A288BD
:1025600061882846FFF7ABFFE1882846FFF79EFF0A
:1025700025E0208804280AD12389A288618828467A
:10258000FFF753FFE1882846FFF742FF17E0208856
:1025900008280AD12389A28861882846FFF7FBFE14
:1025A000E1882846FFF7EEFE09E02389A2886188CA
:1025B0002846FFF7A6FEE1882846FFF795FE70BD86
:1025C0002DE9F04105460C4600260127608808B930
:1025D000022600E00026A088012801D1022700E0A1
:1025E00001272088A0B92389A28861882846FFF79F
:1025F00066FFE1882846FFF759FF23893A463146AE
:102600002846FFF712FFE1882846FFF701FF13E095
:102610002389A28861882846FFF707FFE1882846BA
:10262000FFF7F6FE23893A4631462846FFF747FF73
:10263000E1882846FFF73AFFBDE8F0810A884B8819
:102640001A438B881A43CB881A430B891A434B8948
:102650001A438B891A43A0F8442070474FF6FF7144
:10266000818000210180C18041800172704700217A
:10267000018041808180C180018141818181C1814E
:102680007047002101804180012181800021C180AB
:10269000018170470021018041808180C1800181DA
:1026A0004181818170470000002C014000340140CD
:1026B0000004004000080040000C004021B10288E6
:1026C00042F00102028004E002884FF6FE731A40D5
:1026D0000280704731B1B0F8442042F40042A0F8C3
:1026E000442005E0B0F84420C2F30E02A0F84420D4
:1026F00070471AB183890B43838102E083898B433E
:10270000838170478182704741EA0203A0F8483014
:1027100070471AB183890B43838102E083898B431D
:102720008381704701894FF6F8721140018170472B
:102730000A46002101894FF68F7319401143018128
:10274000704730B504460D4629462046FFF7F0FF96
:10275000208940F00700208130BD2DE9F04104467A
:102760000D4616461F46602D06D13B4601223146D6
:102770002046FFF75AFE05E03B460122314620463F
:10278000FFF79DFE29462046FFF7D2FF208940F043
:1027900007002081BDE8F08130B50C460021018999
:1027A000C9B24FF6FF7505EA0325154325432943B2
:1027B000018130BD2DE9F04105460E461746984689
:1027C000002443463A4631462846FFF7E5FF2C8968
:1027D0004FF6F870044044F007044FF68F70044041
:1027E00044F070042C81BDE8F081F0B504460D463C
:1027F00016461F463B46324629462046FFF7CCFF89
:10280000208940F480402081F0BD0185828270479C
:102810000A46002101884FF68F7319401143018049
:102820007047F0B50C4615461E46002100220023D5
:102830000189028B038C4FF6F877394021434FF61C
:10284000FC473A4040F201173A434FF6DD773B40F0
:102850004FF6FF7707EA06172F433B4301810283B8
:102860000384F0BD0A460021018B4FF68F73194097
:102870001143018370470A460021018B48F6FF731C
:1028800019404FF6FF7303EA02231943018370478F
:102890000A460021818B4FF68F73194011438183C3
:1028A00070470A460021818B48F6FF7319404FF6A6
:1028B000FF7303EA022319438183704721B1028821
:1028C00042F08002028004E002884FF67F731A40D3
:1028D0000280704721B1828842F00402828004E0C5
:1028E00082884FF6FB731A408280704721B182883C
:1028F00042F00802828004E082884FF6F7731A40A3
:102900008280704721B1828842F00102828004E017
:1029100082884FF6FE731A40828070470A46002173
:10292000018B4FF6F77319401143018370470A4634
:102930000021018B4FF2FF7319404FF6FF7303EA3A
:1029400002231943018370470A460021818B4FF609
:10295000F77319401143818370470A460021818B28
:102960004FF2FF7319404FF6FF7303EA0223194336
:10297000818370470A460021018B4FF6FB73194093
:102980001143018370470A460021018B4FF6FF3344
:1029900019404FF6FF7303EA02231943018370477E
:1029A0000A460021818B4FF6FB7319401143818346
:1029B00070470A460021818B4FF6FF3319404FF6CE
:1029C000FF7303EA02231943818370470A460021FB
:1029D000018B4FF67F7319401143018370470A46FC
:1029E0000021018BC1F30E014FF6FF7303EA0223AE
:1029F0001943018370470A460021818B4FF67F738C
:102A000019401143818370470A460021818BC1F32D
:102A10000E014FF6FF7303EA0223194381837047C7
:102A20000A460021018C4FF6FD73194011430184C1
:102A300070470A460021018C4FF6F7731940114385
:102A4000018470470A460021018C4FF6DF7319405C
:102A50004FF6FF7303EA02131943018470470A46D5
:102A60000021018C4FF67F7319404FF6FF7303EA84
:102A700002131943018470470A460021018C4FF666
:102A8000FF5319404FF6FF7303EA022319430184F1
:102A900070470A460021018C4FF2FF7319404FF630
:102AA000FF7303EA02231943018470470A46002199
:102AB000018C4DF6FF7319404FF6FF7303EA0233A2
:102AC00019430184704730B5002301248C40A3B220
:102AD000048C9C430484048C02FA01F5ADB22C43AF
:102AE000048430BD30B5002304248C40A3B2048C90
:102AF0009C430484048C02FA01F5ADB22C43048497
:102B000030BD70B50346002000241846183001255A
:102B10008D40ACB21D8CA5431D8409B1082909D193
:102B200000EB6100056825F0700505600568154338
:102B300005600EE00D1FC5F34E052844056825F419
:102B4000E045056005684FF6FF7606EA0226354344
:102B5000056070BD21B1028842F00202028004E0EB
:102B600002884FF6FD731A400280704721B1028837
:102B700042F00402028004E002884FF6FB731A4020
:102B80000280704721B1828842F08002828004E096
:102B900082884FF67F731A408280704702884FF612
:102BA000F7731A40028002880A43028070478288C5
:102BB0004FF68F731A40828082880A438280704762
:102BC00002894FF6F8731A40028102890A43028192
:102BD000704702894FF67F731A40028102890A43C7
:102BE0000281704781847047818570478186704774
:102BF0000187704781877047A0F8401070470288AE
:102C00004FF6FF431A40028002880A430280704751
:102C10000146888E70470146088F70470146888FAD
:102C200070470146B1F8400070470146888C7047F4
:102C30000146088D704702460020138A0B400BB1F5
:102C4000012000E000207047CA430282704730B57F
:102C50000246002000230024158A05EA0103958915
:102C600005EA010413B10CB1012000E0002030BDE1
:102C7000CA4302827047000010B50446FB488442F4
:102C800009D101218803FFF79FF800214FF480400C
:102C9000FFF79AF832E0F648844209D1012148044E
:102CA000FFF79FF800214FF40030FFF79AF825E076
:102CB000F048844209D101218804FFF792F80021ED
:102CC0004FF48020FFF78DF818E0EB48844209D1DB
:102CD0000121C804FFF785F800214FF40020FFF719
:102CE00080F80BE0E548844208D101210805FFF790
:102CF00078F800214FF48010FFF773F810BD2DE92C
:102D0000F04786B005460E460024A24600BFA14605
:102D10000027B08900B100BF2F462C8A4CF6FF7007
:102D20000440F08804432C82AC894EF6F310044032
:102D3000B08831890843718908430443AC81AC8A67
:102D40004FF6FF400440B0890443AC8201A8FEF76F
:102D5000B4FFC648874202D1DDF810A001E0DDF8DB
:102D60000CA0A88900F4004040B10AEBCA0000EBB7
:102D70000A1031684900B0FBF1F807E00AEBCA001D
:102D800000EB0A1031688900B0FBF1F86420B8FB51
:102D9000F0F004012009642101FB1089A88900F4E6
:102DA000004040B1322000EBC900B0FBF1F000F070
:102DB0000700044308E0322000EB09106421B0FB57
:102DC000F1F000F00F0004432C8106B0BDE8F0875D
:102DD0004FF41651016000218180C18001810C21D6
:102DE000418100218181704710B502460020108A80
:102DF0004FF2FF0318400B884C8823438C882343F1
:102E0000CC8823431843108210BD002101804180EB
:102E10008180C180704721B1828942F40052828151
:102E200004E082894DF6FF731A4082817047F0B545
:102E30000346002400260025002040F66A17B94208
:102E400000D100BF1846C1F3421401F01F0601274C
:102E500007FA06F5012C01D10C3004E0022C01D157
:102E6000103000E014301AB107682F43076002E009
:102E70000768AF430760F0BD1AB1838A0B438382B2
:102E800002E0838A8B4383827047028A4FF6F07395
:102E90001A400282028A0A430282704782894FF2F4
:102EA000FF731A40828182890A438281704721B16F
:102EB000828942F00202828104E082894FF6FD732A
:102EC0001A4082817047028A4FF6DF731A400282ED
:102ED000028A0A430282704721B1028A42F4804288
:102EE000028204E0028A4BF6FF731A4002827047A6
:102EF000C1F308028280704701468888C0F3080049
:102F00007047818941F0010181817047028BD2B203
:102F10000283028B42EA012202837047028B02F491
:102F20007F420283028B0A430283704721B1828A67
:102F300042F02002828204E0828A4FF6DF731A4058
:102F40008282704721B1828A42F01002828204E0BC
:102F5000828A4FF6EF731A408282704721B1828ACB
:102F600042F00802828204E0828A4FF6F7731A4028
:102F70008282704721B1828942F40042828103E05B
:102F80008289C2F30E028281704721B1828A42F4A3
:102F90000062828204E0828A4FF2FF731A408282CA
:102FA0007047828A4FF6FB731A408282828A0A43F4
:102FB0008282704721B1828A42F00202828204E05A
:102FC000828A4FF6FD731A408282704702460020C3
:102FD000B1F5007F00D100BF13880B400BB1012079
:102FE00000E00020704701F40072B2F5007F00D1CC
:102FF00000BFCA430280704770B502460024002318
:103000000025002040F66A16B14200D100BFC1F38E
:10301000421501F01F03012606FA03F3012D02D128
:103020009689334006E0022D02D1168A334001E032
:10303000968A33400C12012606FA04F416883440AE
:1030400013B10CB1012000E0002070BD10B50022CA
:10305000002340F66A14A14200D100BF0A120124E5
:103060009440A3B2DC43048010BD0000003801404E
:103070000044004000480040004C00400050004028
:1030800010B50446BE48844208D101218014FEF7E1
:103090009BFE0021A014FEF797FE16E0B94884427B
:1030A00008D101210014FEF79CFE00212014FEF738
:1030B00098FE0AE0B448844207D10121C013FEF70C
:1030C00090FE0021E013FEF78CFE10BD10B500222B
:1030D000028802F441520B884C8823438C88234396
:1030E000CC8823430C8923434C8923438C89234375
:1030F000CC8923431A430280838B4FF2FF74234011
:1031000083830B8A038210BD2DE9F04F85B00546FD
:103110000C464FF0000902274FF000084FF0010B5A
:103120000026B246A88B4FF240010840A883022037
:103130002884B5F81C90A068022801D100BF38E0AF
:10314000A08810B94FF0010B01E04FF0020B8D4841
:10315000854200D100E000BF6846FEF7AEFDDDF815
:1031600000A0E088B0F5007F0AD14FEA1A2000EBFA
:1031700080004000A168B0FBF1F0401D86B20BE07A
:103180004FEA4B10BAFBF0F000EB80004000A16862
:10319000B0FBF1F0401D86B20A20B6FBF0F606F057
:1031A0000108A6EB0800C0F34F074FF6FF7000EAD6
:1031B0000828022F01DBFF2F02DD02274FF0000855
:1031C000E08840EA080038432884A088A1890843A1
:1031D000618808432188084340F4006040EA0909F7
:1031E000A5F81C9005B0BDE8F08F0021018041805A
:1031F0008180C180018141818181C181072101825A
:1032000070470021018041808180C180022181605E
:1032100000218181704721B1028842F04002028082
:1032200004E002884FF6BF731A400280704721B154
:10323000828B42F48062828304E0828B4FF6FF33FC
:103240001A408283704730B5002400230C110125F9
:10325000A540ABB21AB185881D43858002E0858800
:103260009D43858030BD1AB183880B43838002E083
:1032700083888B43838070478181704701468889AA
:1032800070474FF6FF62914204D0028842F4807288
:10329000028004E002884FF6FF631A400280704704
:1032A00021B1828842F00402828004E082884FF6D5
:1032B000FB731A408280704702884FF2FF731A40F6
:1032C000028002880A4302807047018841F48051DD
:1032D0000180704721B1028842F40052028004E06C
:1032E00002884DF6FF731A400280704702460020A4
:1032F000012901D0108B00E0908A70470146088AAE
:103300007047B1F5804F04D1028842F480420280B8
:1033100004E002884BF6FF731A40028070470246B1
:10332000002013890B400BB1012000E00020704702
:10333000CA4302817047F0B50246002000240023F2
:10334000002501F00F070126BE40B4B20B11012683
:103350009E40B3B2968806EA03051689264016B148
:103360000DB1012000E00020F0BD10B5002201F0F9
:103370000F040123A3409AB2D343038110BD000080
:103380000030014000380040003C0040002044492B
:103390000860091D0860091D0860091D0860414892
:1033A0003F4914310860704700213D498279002A65
:1033B0003AD00A46126803689A430B461A600A1DFF
:1033C000126803689A430B1D1A60027911440A6857
:1033D00003681A430A60324A0832126803689A4343
:1033E0002F4B08331A601A1D126803689A432C4B3E
:1033F0000C331A604279102A0ED11A1F1268036822
:103400001A43274B08331A601A1D126803681A43BF
:10341000234B0C331A600DE02149427911440A68AC
:1034200003681A430A6005E0027911440A680368D8
:103430009A430A6070470021016001710C214171BB
:103440000021817170471649103109680143144AFF
:1034500010321160704701460020114A1432126880
:103460000A400AB1012000E0002070470C491431E5
:1034700008607047014600200022094B1B6803EAE0
:103480000102074B14331B680B4013B10AB1012032
:1034900000E00020704702491431086070470000C6
:1034A00000040140FFFF0F002DE9F041052102203B
:1034B000FDF76EFC4FF47A71484301EB20308449EC
:1034C000888105210020FDF763FC4FF47A714843A1
:1034D00001EB20307E49088105210320FDF758FCCF
:1034E0004FF47A7148434900A1EB203081B278480B
:1034F000C18105210120FDF74BFC4FF47A7148434F
:1035000001EB2030724948818989A1F2DC5000F03A
:103510002BFD21F00041054600226E4B00F076FEA7
:1035200002D26B48808901E040F2DC506849888112
:103530000989A1F2DC5000F017FD21F00041054699
:103540000022644B00F062FE02D26148008901E073
:1035500040F2DC505E490881C989A1F2DC5000F0DC
:1035600003FD21F00041054600225A4B00F04EFEBB
:1035700002D25748C08901E040F2DC505449C8816A
:103580004989A1F2DC5000F0EFFC21F00041054632
:103590000022504B00F03AFE02D24D48408901E033
:1035A00040F2DC504A49488108468089B0F5FA6FFC
:1035B00002DD4FF4FA6001E0454880894449888182
:1035C00008468089404210F57A7F03DA08468089F0
:1035D000404200E04048404281B23D48818100893C
:1035E000B0F5FA6F02DD4FF4FA6001E03848008967
:1035F0003749088108460089404210F57A7F03DA8E
:1036000008460089404200E0334840423049088182
:103610000846C089B0F5FA6F02DD4FF4FA6001E0A8
:103620002B48C0892A49C8810846C089404210F504
:103630007A7F03DA0846C089404200E026484042CB
:1036400081B22348C1814089B0F5FA6F02DD4FF4A1
:10365000FA6001E01E4840891D49488108464089BA
:10366000404210F57A7F03DA08464089404200E084
:103670001948404281B2164841814FF07C540146BE
:103680000989A1F2DC5001F079F80746214601F0E2
:10369000A1F80646114900F011FF054601F04EF869
:1036A0000B4908814989A1F2DC5001F067F807460F
:1036B000214601F08FF80646084900F0FFFE054656
:1036C00001F03CF881B202484181BDE8F081000080
:1036D0006E00002000003E4018FCFFFF0080BB444D
:1036E00010B510222449254800F0CCF82348FCF7F7
:1036F000D5FF2148807900F0080088B12048007883
:10370000401C1F49087008460078642808DD1A48E4
:10371000C08820F008001849C880002018490870A7
:1037200010BD10B51448807900F0100000B110BD34
:1037300010211448FEF721F9FFF7B6FE0E488079F4
:1037400000F0010020B140210E48FEF714F903E01B
:1037500040210C48FEF711F90748807900F0040079
:1037600020B120210748FEF706F903E02021054893
:10377000FEF703F900BFDAE76E000020C00000206A
:103780007E000020000C0140704700000FB4044987
:1037900010B503AA029800F017F910BC5DF814FBED
:1037A000340000202DE9F0410E460446002020623E
:1037B0002046E168884730B3252805D0D4E90121A7
:1037C0009047206A401CF2E7E168204600278847BE
:1037D000050018D0A5F14100192802D820354FF472
:1037E00000673246294620462760FCF7B9FC40B105
:1037F000012804D0F61D26F007060836D8E7361D46
:10380000D6E72846DAE7206ABDE8F0812DE9F041E5
:103810000646002410687529314616A510D0AFF36E
:103820000080002802DA404213A507E031688A07C9
:1038300001D512A502E0490704D511A5012401E034
:10384000AFF3008000210A2206F1240709E0B0FB53
:10385000F2FCB0FBF2F302FB1C0030307854184647
:10386000491C0028F3D123462A463046BDE8F041E2
:1038700000F051B8000000002D0000002B000000F7
:1038800020000000032A40F2308010F0030C00F00A
:10389000158011F8013BBCF1020F624498BF11F88A
:1038A00001CB00F8013B38BF11F8013BA2F1040243
:1038B00098BF00F801CB38BF00F8013B11F00303BB
:1038C00000F09480083AC0F0088051F8043B083AB0
:1038D00051F804CBA0E80810F5E7121D5CBF51F8C1
:1038E000043B40F8043BAFF30080D20724BF11F83B
:1038F000013B11F801CB48BF11F8012B24BF00F8A0
:10390000013B00F801CB48BF00F8012B704770471E
:103910007047704770472DE9F0470D46994692462B
:10392000044600F124080168880604D5E06921F006
:103930001001216000E00120A84201DD471B00E0EA
:103940000027A1697A1902EB0900081AA061207802
:10395000C00602D42046AFF30080002608E0D4E978
:1039600001211AF806009047206A401C761C20624C
:103970004E45F4DB2078C0060AD52046AFF3008020
:1039800006E0D4E9012130209047206A401C2062E3
:10399000381EA7F10107F4DC07E0D4E9012118F88B
:1039A00005009047206A401C2062281EA5F10105F1
:1039B000F3DC2046AFF300802078000602D5022019
:1039C000BDE8F0870120FBE7074B70B50D467B444F
:1039D00000F043F80446284600F052F810B14FF0CA
:1039E000FF3070BD204670BD6FCFFFFF10B5203A8D
:1039F000C0F00B80B1E81850203AA0E81850B1E8A8
:103A00001850A0E81850BFF4F5AF5FEA027C24BF5D
:103A1000B1E81850A0E8185044BF18C918C0BDE854
:103A200010405FEA827C24BF51F8043B40F8043B1D
:103A300008BF7047D20728BF31F8023B48BF11F8D2
:103A4000012B28BF20F8023B48BF00F8012B70472C
:103A500001694A1C02610878704700B58FB0CDE952
:103A600001310021059105497944CDE90310114642
:103A70006846FFF797FE0FB000BD0000E5FFFFFFAF
:103A8000007B00F080007047754600F02BF8AE46D2
:103A900005006946534620F00700854618B020B55A
:103AA000FCF772FCBDE820404FF000064FF0000725
:103AB0004FF000084FF0000B21F00701AC46ACE8D6
:103AC000C009ACE8C009ACE8C009ACE8C0098D4643
:103AD000704710B50446AFF300802046BDE81040A3
:103AE000FCF750BB004870472806002021F0004238
:103AF000A2F16052B2F5801F01F0004328BFD2F15D
:103B00007F6C0BD95FEA001C43EAC20242EB5070A3
:103B100018BF704728BF20F001007047B2F5801F22
:103B2000BCBF184670474FEA410C1CF5001F02D27B
:103B3000084600F016BF70B500F014FB00000089C5
:103B4000FFF7F6BF4FF00040A0F58000704700007F
:103B500010B591EA030F48BF83F0004300F1A08342
:103B6000841A71EB030C05D2121943EB0C03001BF2
:103B700061EB0C01DFF824E14FEA1154A4EB135C74
:103B80001EEA430F18BF9EEA445F73D023EA0E0378
:103B9000DCF1200E21EA045143F4801332D322FADF
:103BA0000CFE10EB0E0023FA0CFE41EB0E01CCF1E3
:103BB000200E03FA0EFE10EB0E0051F10001B1F5DC
:103BC000801FCCF1200E32D201EB045112FA0EF21A
:103BD000BDE8104058BF7047401C38BF5FEA420242
:103BE00018BF7047002814BF20F0010041F1000108
:103BF0004FEA410313F5001F38BF7047A1F1C041E0
:103C000000F0FEBA012A43EB0302ACF1200CDCF118
:103C10001F0E32BF4FF0000E23FA0CF310EB03001F
:103C200041EB0451B4EB115FD0D0A1EB045101F58D
:103C3000801149085FEA300001EB04510ED350F1C6
:103C4000000038BF12FA0EFE08D1BDE81040C9E7E7
:103C5000401C38BF5FEA4202CAD1C3E7BDE810404A
:103C60004FEA410313F5001F38BF7047A1F1C0416F
:103C700000F0C6BA9EEA445F08D011EA5E0FBDE8C4
:103C8000104004BF01F0004100207047BDE8104023
:103C900070B500F067FA00BF64FBBE3E0000E0FFB5
:103CA000491058BFC1F140415B1058BFC3F14043B8
:103CB0008B42EFF3008070472DE9C04130B4DFF84C
:103CC000A0C23CEA111418BF3CEA131400F0EC80C7
:103CD00081EA03051CEA111444EAD57418BF1CEAF2
:103CE000131500F0C780A4EB05044FF0004545EA2A
:103CF000C12145EAC32341EA505143EA525304F13A
:103D00007F74994204F500344FEAC0204FEAC22282
:103D100008BF904200F09C804FEA13650FF24016F6
:103D2000765D4FEA134506FB05F7C7F1807706FB82
:103D300007F74FEAD737A7FB03687642C8F5803804
:103D4000A7FB06CE38BFA8F1010807FB08E64FF035
:103D5000000EA6FB028CE6FB03CEDCF1000CCEF1DC
:103D6000004E38BFAEF1010EA6FB0C584FF0000715
:103D70004FF00005E6FB0E87A1FB08C6A0FB07CEAF
:103D800016EB0E0645F10005E1FB076515F1E04E67
:103D90007EBFA4F580345FEA46066D4116F18007C8
:103DA00045F100054FEA17274FEA066647EA05671F
:103DB000A6F1DE46B6F1805F4FEA15251FD93846D9
:103DC00024F0010C05EBC471BCF1FE6F01EB0C118A
:103DD00002D8F0BCBDE8008124425CBF01F5801E22
:103DE0009EEAC47F02D4F0BCBDE80081244238D4EE
:103DF000F0BCA1F1C041BDE8004100F001BA4FEABA
:103E0000D22242EA43524FEAD323A7FB02864FEA6B
:103E1000D02040EA415007FB03661EEA0E0F4FEA2E
:103E2000D12105FB026658BFA6EB0056B6EB005643
:103E30004FEA520E4EEAC37E18EB0E0E56EB530EAF
:103E4000BDD518EB02085E417F1C55F10005B6E7B1
:103E50004FF480154FF000074FF000064FF00008B8
:103E6000ADE7F0BC4FF0000001F1C04101F00041AE
:103E7000BDE8008111EA0C1F0CEA131500D00CE01C
:103E800013EA0C1F00F025804FF00000F0BC81EA1F
:103E9000030101F00041BDE80081F0BCBDE8004134
:103EA00081EA030100F0ACB9F0BCBDE8004170B597
:103EB00000F058F9097EFC3E00F007B881EA0301E2
:103EC0004FF0000001F00041704781EA030100F06B
:103ED00097B9F0BCBDE800414FF0000021497047A0
:103EE000FFFDFBF9F7F5F4F2F0EEEDEBE9E8E6E4BF
:103EF000E3E1E0DEDDDBDAD8D7D5D4D3D1D0CFCD46
:103F0000CCCBCAC8C7C6C5C4C2C1C0BFBEBDBCBB7E
:103F1000BAB9B8B7B6B5B4B3B2B1B0AFAEADACAB79
:103F2000AAA9A8A8A7A6A5A4A3A3A2A1A09F9F9E53
:103F30009D9C9C9B9A999998979796959594939305
:103F4000929191908F8F8E8E8D8C8C8B8B8A89899C
:103F5000888887878685858484838382828181801F
:103F60000000FF070000F87F10F0004248BF404209
:103F7000B0FA80F310FA03F10AD0C3F11D0303F580
:103F800080634FEA415002EB035202EBD1217047AC
:103F90004FF000007047000051EA030C17D41CF5E5
:103FA000801F58BFBCF5801F00F10680994218BFE2
:103FB000704708BF9042704707D711F5801F58BF60
:103FC00013F5801F19D499427047894270471CF538
:103FD000801F08D5BCF5801FF7D58B4218BF7047EE
:103FE00008BF824270474FF4001C1CEB410F38BFE2
:103FF0001CEB430F01D28B42704770B500F0B2F852
:10400000922449004FF000514FF08053FFF748BE13
:10401000DFF848C170B51CEA111E1EBF1CEA13155B
:104020009EEA0C0F95EA0C0F00F06F8081EA030402
:1040300023EA4C134EEAD47E21EA4C1141F480115C
:1040400043F48013AE44A1FB024CA0FB0365AEF128
:104050007F7E361955EB0C05A1FB034C4CF1000398
:10406000A0FB021C16EB0C06654153F1000309424C
:1040700018BF46F0010613F4007F0BD14FEA03315D
:104080004FEA0530340341EA155140EA16506FF00B
:1040900003020AE04FEAC3214FEAC520F40241EAD5
:1040A000555140EA56506FF0020202EB2E4201EBEE
:1040B000025585EACE710AD05FEA440C18BF24F09D
:1040C000004450F1000041F1000120EAD47040F2B8
:1040D000FE7C624500D270BDA84214BF4FF0804400
:1040E0004FF04044002E08BF0024BEF1806FA8BFEF
:1040F000A1F1C041BDE8704080F282804FF0000025
:1041000001F1C04101F0004170479EEA0C0F0CEA3A
:10411000131518BF95EA0C0F06D04FF0000081EA86
:10412000030E0EF0004170BD00F01CF88900013E46
:1041300000F007B800F009B84FEA430C5FEA5C5C96
:1041400008D081EA030100F05BB84FEA410C5FEA56
:104150005C5CF6D14FF00000014970470000FF079A
:104160000000F87F0EF1020E2EF0030E5EF8046BD5
:10417000364205D4012A43EB030515F5001F12D87A
:10418000012841EB010C1CF5001F0CD80ED14FEAA1
:10419000D17C15F5001F0CEB4C0C0CF1020C08BF88
:1041A0004CEBD37C04E04FF0080C01E04FEAD37CE9
:1041B0000CEB4C0526FA05F606F00706B6F1040CE2
:1041C00006D20EEB860CBDE870404CF0010C604747
:1041D000DFE80CF0090B02024FF000414FF0000045
:1041E000A1F5002170BD19461046012851EB0104CC
:1041F00018BFD4F5001484BF002001F0004170BD49
:104200000808A0F500114FEA3101704753EA010C8C
:1042100017D41CF5801F58BFBCF5801F00F1068025
:104220008B4218BF704708BF8242704707D713F50B
:10423000801F58BF11F5801F19D48B4270479B42D5
:1042400070471CF5801F08D5BCF5801FF7D5994233
:1042500018BF704708BF904270474FF4001C1CEB1A
:10426000430F38BF1CEB410F01D2994270470FB486
:104270000CBC03BCFFF7C1BE91EA030F10B581F07F
:1042800000413FF56DAC83F0004300F009B8000039
:1042900010B591EA030F48BF83F000433FF560ACCF
:1042A000841A71EB030C07D212198CF0004C43EB0B
:1042B0000C03001B61EB0C01DFF8A4E14FEA115481
:1042C000A4EB135C1EEA430F18BF9EEA445F00F0A4
:1042D000B08023EA6E03524221EA0451C3EB6E031D
:1042E00038BF5B1EDCF1200E25D322FA0CFE10EB4A
:1042F0000E0043FA0CFE41EB0E01CCF1200E03FA46
:104300000EFE10EB0E0051F10001CCF1200E29D46D
:1043100012FA0EF201EB0451BDE8104058BF70478D
:10432000401C1CBFB2F1004F704700280CBF491C55
:1043300020F00100704712EB020E43EB030218BF9E
:104340004FF0010E4EEA4202ACF1200CDCF11E0EE1
:1043500054D943FA0CFE10EB0E0051F1FF31CCF1B1
:104360001E0ED5D50EF1010E12FA0EFE404141EBA4
:10437000010101EB445C5FEA5C5C10D910EBDE707C
:1043800001EB045138BFBEF1004FBDE8104018BF2B
:10439000704700280CBF491C20F00100704730D244
:1043A0004FEAD42C11F5001124F400641BD0B1FAAB
:1043B00081F20B3AA41AA41ED2F12003914030FAE4
:1043C00003F31943904001EBCC71002C01EB045135
:1043D000BDE81040A8BF704701F1C0414FF0000098
:1043E00001F000417047B0FA80F310FA03F100D1F8
:1043F00010BDE41A173C4805C90AE4E701EB045173
:1044000010BD491001EB0451BDE810404FEA3000E7
:1044100002E04FF0000170474A0008BF0042F8D0A8
:10442000B2F5001F28BF704701F000414FF00000B7
:1044300070479EEA445F07D011EA5E0FBDE8104066
:1044400004BF002100207047BDE8104070B5FFF7A1
:1044500089FE00BF40DFF63E83F000411046704702
:104460000000E0FF43004FEAD30C4FEA3C0C43400E
:104470001FBF40070CF1605113F0FE4F70471CF056
:10448000006F03D100200CF0004170470CF0004396
:1044900043EA507010B540EACC0000F01CFA00BFAF
:1044A000000000924FEA0001FFF7AABE4FF0004162
:1044B0004FF00000A1F500217047000090EA010FC5
:1044C00048BF81F0004100F16282421A3CBF801A6D
:1044D00089184FEAD0524FF07F4C1CEA410FA2EBF3
:1044E000D15318BF9CEA026F00F03B804FF0004CA4
:1044F0004CEA00204CEA012121FA03FC10EB0C0CE1
:104500001ED202F1FF325FEA1C2040EBC25038BFDE
:1045100070471CF07F0F4FEA400C18BFBCF17F4F73
:1045200038BF7047C3F12003994008BF20F0010055
:10453000BCF17F4F38BF7047A0F1C04000F011BA06
:104540004FEA3C00000A40EBC25028BF1CF0FF0FAE
:104550004FEA400CE6D018BFBCF17F4F38BF704720
:10456000EAE79CEA026F05D010EA5C0F08BF00F092
:104570000040704710B500F0AEF900BF64FBBE3ECE
:104580004FF47F0C1CEAD0121EBF1CEAD11392EA32
:104590000C0F93EA0C0F00F0858090EA010F48BFE2
:1045A00042F4807240F4000C41F400002CF07F4192
:1045B00020F07F4000B58142A2EB03020FF2081CFD
:1045C000ACEB504EC0F100009EF800E04FEA4E0EFA
:1045D00000FB0EFC38BF49004FEA2C1C02F5FA0222
:1045E0000CFB0EF34FEACE1E4FEA112C4FEAC1210D
:1045F0000EEB635E42EB22420EFB0CFC4FEA1C53B7
:1046000000FB03114FEA112C4FEA01310EFB0CFCA9
:104610004FEADC4C00FB0C11C14228BF09184CEBDF
:1046200003335DF804EB10EB410143EBC250B2F5EC
:104630007C0F38BF704729D512F0F00F1CBF00F176
:10464000C04000F0004070470081828384858687E7
:1046500088898B8C8D8E8F919293959697999A9C41
:104660009D9FA0A2A3A5A7A8AAACAEB0B2B3B5B7B0
:10467000B9BCBEC0C2C5C7C9CCCED1D4D7D9DCDF86
:10468000E2E6E9ECF0F3F7FAFE0000004FEA400C36
:104690000CF1807CBCF17E4F28BF7047B0F1C04068
:1046A00000F05FB990EA010F0CEAD11348BF42F461
:1046B0008072624538BF634507D213F47F0F16D06E
:1046C00080EA010000F00040704710B500F003F9E7
:1046D000097EFC3E00F005B880EA010000F00040D1
:1046E000704780EA010000F0004000F03AB912F48F
:1046F0007F0F04BF0248704780EA010000F031B923
:104700000000C07F41000B0ED3F19E0208D950F487
:1047100000034FEA032323FA02F048BF40427047E8
:1047200010B500F0D8F800BF4992248000207047EF
:104730006FF0004282EA200070470000C10DD1F105
:104740009E0206DB4FEA002343F0004323FA02F007
:104750007047004207D54FEA4001B1F1FE4F02D247
:104760004FF00000704710B500F0B5F84992248072
:10477000002070476FEA20007047000010F00041F1
:1047800048BF4042B0FA80F310FA03F2C3F19D0330
:104790000BD051EAC35101EB1220530638BF7047CA
:1047A00000F1010008BF20F001007047B0FA80F36B
:1047B00010FA03F2C3F19D030AD0D90501EB1220D0
:1047C000530638BF704700F1010008BF20F0010018
:1047D000704700004FF47F0C1CEAD0121EBF1CEA89
:1047E000D11392EA0C0F93EA0C0F00F0478090EA85
:1047F000010F48BF42F480724FF0004C4CEA002099
:104800004CEA012102EB0302A0FB0113A2F5000216
:10481000002918BF43F001035B0028BF4FEA3303B0
:1048200042EB22425FEA132C4CEBC2502EBFBCEB92
:10483000436FB2F57C0F70474FEA036CBCF1004F39
:1048400008BF20F00100B2F57C0F38BF70470BD5D0
:1048500082F0FF0212F5803FC8BF704700F1C040F0
:10486000D8BF00F00040704700F5000C5FEA4C0C28
:1048700048BF7047B0F1C04000F073B890EA010F34
:104880000CEAD11348BF42F48072624538BF6345D9
:1048900004D280EA010000F00040704710B500F03B
:1048A0001AF800BF8900013E00F007B800F009B80F
:1048B0005FEA410C5FEA1C6C08D080EA010000F05E
:1048C00050B85FEA400C5FEA1C6CF6D14FF0004034
:1048D000A0F5800070470EF1020E2EF0030E5EF878
:1048E000044B244204D44FEA4102B2F17F4F11D865
:1048F0004FEA4003B3F17F4F0CD80ED14FEAD07C82
:10490000B2F17F4F0CEB4C0C0CF1020C08BF4CEBDE
:10491000D17C04E04FF0080C01E04FEAD17C0CEBB5
:104920004C0324FA03F404F00704B4F1040C06D297
:104930000EEB840CBDE810404CF0010C6047DFE842
:104940000CF0070802024FF00040A0F5800010BDF7
:104950000846420018BFD2F1807288BF00F00040C4
:1049600010BDFF2141EAD050C005704780F00040E3
:1049700090EA010F7FF5A9AD81F0004100F007B882
:1049800090EA010F48BF81F000413FF59EAD421A09
:1049900004D882F00042A0EB020011444FEAD0524A
:1049A0004FF07F4C1CEA410FA2EBD15318BF9CEA99
:1049B000026F4AD04FF0004C4CEA00204CEA012133
:1049C00021FA03FCB0EB0C0C0FD412F0FE0F36D022
:1049D0005FEA4C001DD5001240EBC25038BF704753
:1049E0001CF03F0F18BF70470BE0A2F101025FEA15
:1049F0001C2040EBC25038BF70471CF07F0F18BF1F
:104A00007047C3F12003994014BF401E20F00100FD
:104A1000704780084FEA122308BF7047B0FA80FC45
:104A2000A2EB0C02CCF1280C60FA0CF093EA122FE6
:104A300004BF00EBC25070474FEAC3707047130ABF
:104A40005FEADC1008BF7047F6E79CEA026F04D00B
:104A500010EA5C0F08BF0020704710B5FFF73BFF5E
:104A600040DFF63E81F00040704700008C4A0008AD
:104A70000000002080000000280100080C4B000806
:104A800080000020080C00004401000800512502AD
:104A900000000000000000000102030406070809EE
:104AA0000000000000000000000000000000000006
:104AB00011FFFFFFFF12FFFFFFFF000001000000DA
:104AC00000000000000100000000000000000000E5
:104AD00000000000000000000000000000000000D6
:104AE00000000000000000000001020304010203B6
:104AF00004060708090204060800244D3C000800CB
:0C4B00000000DC05DC05DC05E80300001B
:040000050800036D7F
:00000001FF
